S01700004763634170706C69636174696F6E312E737265635B
S113000045C0000060C000005EC000005CC000008D
S11300105AC0000058C0000056C0000054C0000080
S113002052C0000050C000004EC000004CC0000090
S11300306AC0000048C0000046C0000044C0000080
S113004042C0000040C000003EC000003CC00000B0
S11300503AC0000038C0000036C0000034C00000C0
S113006032C0000030C000002EC000002CC00000D0
S11300702AC0000028C0000026C0000024C00000E0
S113008022C0000020C000001EC0000011241FBEBA
S1130090CFEFD0E1DEBFCDBF11E0A0E0B1E0EEE3F1
S11300A0F6E000E00BBF02C007900D92AA30B10742
S11300B0D9F721E0AAE0B1E001C01D92A231B20754
S11300C0E1F793D0BAC29CCF81E687B986E886B9B6
S11300D00895806687B9089586B1806486B9369993
S11300E0FECF85B190E0089520E030E008C0EFE94C
S11300F0FFE03197F1F700C000002F5F3F4F281752
S11301003907ACF308951F920F920FB60F92112482
S11301102F933F938F939F9380911001909111019E
S11301209C01369527953093110120931001982F47
S1130130917080FF05C03068309311012093100145
S1130140809110018BBB8091110188BB992319F018
S11301501092610003C081E0809361009F918F91B0
S11301603F912F910F900FBE0F901F9018956091A3
S113017000017091010180910A0190910B01681BAB
S1130180790B80E090E078D1B4D120E030E040E217
S113019051E4DED020E030E040E85FE375D040D1A8
S11301A020910E0130910F016217730789F070934B
S11301B00F0160930E012CB53DB56217730710F45F
S11301C01DBC1CBC80910E0190910F019BBD8ABD8A
S11301D0089584EF91E09BBD8ABD87B7806187BF96
S11301E078941FBC8CE08EBD089581E080936100FB
S11301F08FEF8ABB87BB11BA86E482B91092640080
S113020063DF82E090E090930D0180930C018AEA11
S11302109AEA9093110180931001DBDFC0E0D0E0F3
S113022081E090E056DF58DF909301018093000154
S11302309EDF0F9B22C0209711F580910C019091B5
S11302400D0101968430910514F080E090E099232B
S113025014F483E090E090930D0180930C01880FD7
S1130260991FFC01EE5FFE4F8081918190931101F3
S113027080931001C1E0D0E002C0C0E0D0E084E689
S113028090E032DFCDCF5058BB27AA270ED084C1CF
S113029075D130F07AD120F031F49F3F11F41EF47F
S11302A06AC10EF4E095E7FB37C1E92F86D180F3EC
S11302B0BA17620773078407950718F071F49EF55F
S11302C0B5C10EF4E0950B2EBA2FA02D0B01B90188
S11302D090010C01CA01A0011124FF27591B99F0B8
S11302E0593F50F4503E68F11A16F040A22F232FC4
S11302F0342F4427585FF3CF469537952795A79514
S1130300F0405395C9F77EF41F16BA0B620B730BBA
S1130310840BBAF09150A1F0FF0FBB1F661F771F2B
S1130320881FC2F70EC0BA0F621F731F841F48F4E0
S1130330879577956795B795F7959E3F08F0B3CF66
S11303409395880F08F09927EE0F97958795089550
S11303500CD022C11AD140F011D130F021F45F3F0A
S113036019F0DAC0511163C106C127D198F399235A
S1130370C9F35523B1F3951B550BBB27AA27621765
S11303807307840738F09F5F5F4F220F331F441FAA
S1130390AA1FA9F333D00E2E3AF0E0E830D09150E2
S11303A05040E695001CCAF729D0FE2F27D0660FCF
S11303B0771F881FBB1F261737074807AB07B0E80E
S11303C009F0BB0B802DBF01FF2793585F4F2AF024
S11303D09E3F510568F0A0C02AC15F3FECF3983EF0
S11303E0DCF3869577956795B795F7959F5FC9F781
S11303F0880F911D9695879597F90895E1E0660F0A
S1130400771F881FBB1F621773078407BA0720F082
S1130410621B730B840BBA0BEE1F88F7E0950895EB
S1130420D4D088F09F5790F0B92F9927B751A0F0F6
S1130430D1F0660F771F881F991F1AF0BA95C9F774
S113044012C0B13081F0F2D0B1E00895EFC0672F4F
S1130450782F8827B85F39F0B93FCCF38695779524
S11304606795B395D9F73EF490958095709561950D
S11304707F4F8F4F9F4F0895E89409C097FB3EF438
S113048090958095709561957F4F8F4F9F4F9923DD
S1130490A9F0F92F96E9BB279395F695879577955B
S11304A06795B795F111F8CFFAF4BB0F11F460FF1B
S11304B01BC06F5F7F4F8F4F9F4F16C0882311F073
S11304C096E911C0772321F09EE8872F762F05C087
S11304D0662371F096E8862F70E060E02AF09A9522
S11304E0660F771F881FDAF7880F9695879597F917
S11304F0089585D080F09F3740F491110EF097C095
S113050060E070E080E89FEB089526F41B16611DFF
S1130510711D811D07C021C097F99F6780E870E0B5
S113052060E00895882371F4772321F09850872B95
S1130530762F07C0662311F499270DC09051862B9E
S113054070E060E02AF09A95660F771F881FDAF74B
S1130550880F9695879597F908959F3F31F09150AC
S113056020F4879577956795B795880F911D969593
S1130570879597F908959FEF80EC089500240A94D5
S11305801616170618060906089500240A9412166A
S11305901306140605060895092E0394000C11F49D
S11305A0882352F0BB0F40F4BF2B11F460FF04C04A
S11305B06F5F7F4F8F4F9F4F089557FD9058440FA3
S11305C0551F59F05F3F71F04795880F97FB991FAE
S11305D061F09F3F79F0879508951216130614066B
S11305E0551FF2CF4695F1DF08C0161617061806F8
S11305F0991FF1CF86957105610508940895E5DF8B
S1130600A0F0BEE7B91788F4BB279F3860F416162C
S1130610B11D672F782F8827985FF7CF8695779538
S11306206795B11D93959639C8F30895E894BB274F
S111063066277727CB0197F90895F894FFCF3A
S10D063E9001DEF700FFAAAA0000F5
S9030000FC
