S01700004763634170706C69636174696F6E312E737265635B
S113000045C000004BC0000049C0000047C00000CC
S113001045C0000043C0000041C000003FC00000D4
S11300203DC000003BC0000039C0000037C00000E4
S113003051C0000033C0000031C000002FC00000D8
S11300402DC000002BC0000029C0000027C0000004
S113005025C0000023C0000021C000001FC0000014
S11300601DC000001BC0000019C0000017C0000024
S113007015C0000013C0000011C000000FC0000034
S11300800DC000000BC0000009C0000011241FBEF9
S1130090CFEFD0E1DEBFCDBF3CD042C0B1CF20E036
S11300A030E008C0EFE9FFE03197F1F700C000004D
S11300B02F5F3F4F28173907ACF3089584E193E08D
S11300C09BBD8ABD87B7806187BF78941FBC8CE0D5
S11300D08EBD08951F920F920FB60F9211242F9385
S11300E08F939F9388B3805888BB8AB59BB5893D0D
S11300F0914019F489ED91E002C084E193E09BBD45
S11301008ABD9F918F912F910F900FBE0F901F90DA
S113011018958FEF87BBD2DF82E390E0C0DFFCCF7E
S1070120F894FFCF7D
S9030000FC
