S01700004763634170706C69636174696F6E312E737265635B
S113000045C0000060C000005EC000005CC000008D
S11300105AC0000058C0000056C0000054C0000080
S113002052C0000050C000004EC000004CC0000090
S11300306AC0000048C0000046C0000044C0000080
S113004042C0000040C000003EC000003CC00000B0
S11300503AC0000038C0000036C0000034C00000C0
S113006032C0000030C000002EC000002CC00000D0
S11300702AC0000028C0000026C0000024C00000E0
S113008022C0000020C000001EC0000011241FBEBA
S1130090CFEFD0E1DEBFCDBF11E0A0E0B1E0E4ECF2
S11300A0F1E000E00BBF02C007900D92A030B10751
S11300B0D9F721E0A0E0B1E001C01D92A430B2075D
S11300C0E1F755D07DC09CCF81E687B986E886B933
S11300D00895806687B9089586B1806486B9369993
S11300E0FECF85B190E0089520E030E008C0EFEC49
S11300F0F7E03197F1F700C000002F5F3F4F28175A
S11301003907ACF308951F920F920FB60F92112482
S11301102F933F934F935F938F939F93809102010B
S1130120909103019C013595279530930301209309
S11301300201AC014170552780FF05C0306830933F
S1130140030120930201452B21F083B1846083B91C
S113015003C083B18B7F83B99F918F915F914F913E
S11301603F912F910F900FBE0F901F9018951092F2
S113017061008FEF8ABB81BB82B9A6DF78948EB50C
S113018088608EBD87B7806187BF83E090E09093DD
S113019001018093000110920301109202018EB5B7
S11301A082608EBD80E090E094DF96DF8BBB81E0BF
S11301B090E08FDF91DF82BB84E690E095DFF2CFA1
S10701C0F894FFCFDD
S9030000FC
