S01700004763634170706C69636174696F6E312E737265635B
S113000045C0000060C000005EC000005CC000008D
S11300105AC0000058C0000056C0000054C0000080
S113002052C0000050C000004EC000004CC0000090
S11300309DC0000048C0000046C0000044C000004D
S113004042C0000040C000003EC000003CC00000B0
S11300503AC0000038C0000036C0000034C00000C0
S113006032C0000030C000002EC000002CC00000D0
S11300702AC0000028C0000026C0000024C00000E0
S113008022C0000020C000001EC0000011241FBEBA
S1130090CFEFD0E1DEBFCDBF11E0A0E0B1E0EAEEEA
S11300A0F2E000E00BBF02C007900D92A031B1074F
S11300B0D9F721E0A0E1B1E001C01D92A831B20757
S11300C0E1F7E1D010C19CCF81E687B986E886B913
S11300D00895806687B9089586B1806486B9369993
S11300E0FECF85B190E0089520E030E008C0EFE94C
S11300F0FFE03197F1F700C000002F5F3F4F281752
S11301003907ACF30895809112019091130101967F
S11301108630910514F080E090E0992314F485E092
S113012090E09093130180931201880F991FFC01B2
S1130130EC5FFE4F808191819093170180931601AB
S113014008952091000130910101C9019695879588
S1130150217033273195219531092227347B822759
S11301609327909301018093000108951F920F92A9
S11301700FB60F9211240BB60F922F933F934F9308
S11301805F936F937F938F939F93AF93BF93EF93FB
S1130190FF938091120190911301049769F02091CB
S11301A0160130911701822F817035952795309370
S11301B017012093160102C0C4DF8170209116013B
S11301C0309117013F77309317012093160188234C
S11301D029F030683093170120931601909116018D
S11301E09BBB9091170198BB882319F01092610072
S11301F003C081E080936100FF91EF91BF91AF91C3
S11302009F918F917F916F915F914F913F912F912A
S11302100F900BBE0F900FBE0F901F9018958091FA
S11302200201909103012091100130911101821B70
S1130230930BC296880F991F880F991F2091140160
S1130240309115018217930789F0909315018093DB
S113025014012CB53DB58217930710F41DBC1CBCCA
S113026080911401909115019BBD8ABD089584EF7E
S113027091E09BBD8ABD87B7806187BF78941FBC1E
S11302808AE08EBD089581E0809361008FEF8ABB80
S113029087BB11BA86E482B91092640015DF10920C
S11302A01301109212018AEA9AEA9093170180933B
S11302B01601DDDFC0E0D0E081E090E00ADF0CDF72
S11302C09093030180930201AADF0F9B06C020973D
S11302D031F419DFC1E0D0E002C0C0E0D0E084E630
S10D02E090E002DFE9CFF894FFCFAD
S11302EAE1AC9001AAAA00FF7628DEF7000000001C
S9030000FC
