S01700004763634170706C69636174696F6E312E737265635B
S11300004DC0000068C0000066C0000064C000006D
S113001062C0000060C000005EC000005CC0000060
S11300205AC0000058C0000056C0000054C0000070
S1130030A9C0000050C000004EC000004CC0000029
S11300404AC0000048C0000046C0000044C0000090
S113005042C0000040C000003EC000003CC00000A0
S11300603AC0000038C0000036C0000034C00000B0
S113007032C0000030C000002EC000002CC00000C0
S11300802AC0000028C0000026C000006C019501B1
S1130090A501BD01D501EF011602420211241FBEC4
S11300A0CFEFD0E1DEBFCDBF11E0A0E0B1E0E2E0F0
S11300B0F6E000E00BBF02C007900D92A432B10736
S11300C0D9F721E0A4E2B1E001C01D92A633B20742
S11300D0E1F736D294C294CF81E687B986E886B92F
S11300E00895806687B9089586B1806486B9369983
S11300F0FECF85B190E0089580912E0190912F015B
S113010001968830910514F080E090E0992314F46E
S113011087E090E090932F0180932E01FC01EE0F75
S1130120FF1FEE0FFF1FEC5FFE4F40815181628184
S1130130738140933201509333016093340170937F
S113014035018BBB0895809129018F5F883008F0B9
S113015080E08093290188BB0895209100013091AB
S11301600101C90196958795217033273195219511
S113017031092227347B82279327909301018093AE
S1130180000108951F920F920FB60F9211240BB61F
S11301900F922F933F934F935F936F937F938F931C
S11301A09F93AF93BF93EF93FF9380912E01909110
S11301B02F010697B9F040913201509133016091BB
S11301C0340170913501842F817076956795579528
S11301D047954093320150933301609334017093F7
S11301E0350102C0BADF8170409132015091330170
S11301F060913401709135017F77409332015093BF
S113020033016093340170933501882349F0706899
S1130210409332015093330160933401709335015C
S1130220882321F083B1846083B903C083B18B7FB9
S113023083B9FF91EF91BF91AF919F918F917F917E
S11302406F915F914F913F912F910F900BBE0F9043
S11302500FBE0F901F901895809102019091030199
S11302602091260130912701821B930BC296880F9F
S1130270991F880F991F2091300130913101821705
S1130280930789F090933101809330012CB53DB5EB
S11302908217930710F41DBC1CBC8091300190910F
S11302A031019BBD8ABD089584EF91E09BBD8ABD59
S11302B087B7806187BF78941FBC8AE08EBD08959C
S11302C0E09129018E2F90E08830910508F0E8C074
S11302D0FC01EA5BFF4F8AC18091280190E04091C4
S11302E0240150912501849F9001859F300D949F96
S11302F0300D1124232F3327309327012093260117
S113030040912C0150912D015695479584179507DE
S113031008F4C6C080912A0190912B01821B930B93
S11303209093270180932601BBC04091280120911E
S1130330240130912501429FC001439F900D112457
S11303409093260110922701ABC04091280180911F
S1130350240190912501489F9001499F300D11245B
S1130360232F332780912A0190912B01821B930B19
S1130370909327018093260193C02091280130E0B7
S113038080912C0190912D01969587952817390716
S113039028F080912A0190912B0102C080E090E026
S11303A090932701809326017BC02091280130E09F
S11303B080912C0190912D0196958795969587951E
S11303C02817390728F480912A0190912B0102C043
S11303D080E090E0909327018093260161C0809192
S11303E0280190E020912C0130912D01369527951C
S11303F082179307B0F44091240150912501849F02
S11304009001859F300D949F300D1124C901880FF0
S1130410892F881F990B919590932701809326012A
S11304203FC010922701109226013AC08091280102
S113043090E020912C0130912D013695279582175B
S11304409307D8F44091240150912501849F900191
S1130450859F300D949F300D1124220F232F221FCE
S1130460330B319580912A0190912B01821B930BC0
S1130470909327018093260113C0109227011092B4
S113048026010EC08091280181110AC066DE6091A8
S11304902A0170912B0196D0909327018093260115
S11304A02091280130E080912C0190912D019695A6
S11304B087952817390720F482B3816082BB03C073
S11304C082B38E7F82BB809128018F5F8093280145
S11304D090E020912C0130912D018217930710F0A8
S11304E010922801089581E090E0FBDDFDDD9093FA
S11304F003018093020182E090E0F3DDF5DD959540
S113050087959595879590932B0180932A0183E095
S113051090E0E7DDE9DDBC01759567957595679514
S113052070932D0160932C016115710521F080E019
S113053090912A0147D07093250160932401089576
S113054081E0809361008FEF8ABB87BB80E881BB29
S113055086E082B910926400BFDD10922F011092E0
S11305602E01109229018AEA9AEADC018093320171
S113057090933301A0933401B093350195DEC0E02C
S1130580D0E000E010E0AFDF67DE9ADE0F9B07C02B
S11305900115110531F4B0DD01E010E002C000E006
S11305A010E00E9B06C0209731F4CDDDC1E0D0E011
S11305B002C0C0E0D0E08FE891E00197F1F700C0FD
S11305C00000E1CFAA1BBB1B51E107C0AA1FBB1F40
S11305D0A617B70710F0A61BB70B881F991F5A95CB
S11305E0A9F780959095BC01CD010895EE0FFF1FEA
S11305F00024001C0BBE0790F691E02D0994F8949A
S1050600FFCF26
S1130602E1AC9001AAAAAAAA200811E997881004C9
S113061200FF00FF76287628DEF7DEF700000000F0
S107062200000000D0
S9030000FC
