S01700004763634170706C69636174696F6E312E737265635B
S113000045C000004BC0000049C0000047C00000CC
S113001045C0000043C0000041C000003FC00000D4
S11300203DC000003BC0000039C0000037C00000E4
S113003035C0000033C0000031C000002FC00000F4
S11300402DC000002BC0000029C0000027C0000004
S113005025C0000023C0000021C000001FC0000014
S11300601DC000001BC0000019C0000017C0000024
S113007015C0000013C0000011C000000FC0000034
S11300800DC000000BC0000009C0000011241FBEF9
S1130090CFEFD0E1DEBFCDBF21D035C0B1CF81E6F7
S11300A087B986E886B90895806687B9089586B1C8
S11300B0806486B93699FECF85B190E0089520E03A
S11300C030E008C0EFECF7E03197F1F700C0000032
S11300D02F5F3F4F28173907ACF308951092610042
S11300E08FEF8ABB81BB82B9DADF80E090E0DCDF8E
S11300F0DEDF82BB81E090E0D7DFD9DF83B984E61D
S10D010090E0DDDFF2CFF894FFCFAA
S9030000FC
