S01700004763634170706C69636174696F6E312E737265635B
S113000054C000005AC0000058C0000056C0000090
S113001054C0000052C0000050C000004EC0000098
S11300204CC000004AC0000048C0000046C00000A8
S113003044C0000042C0000040C000003EC00000B8
S11300403CC000003AC0000038C0000036C00000C8
S113005034C0000032C0000030C000002EC00000D8
S11300602CC000002AC0000028C0000026C00000E8
S113007024C0000022C0000020C000001EC00000F8
S11300801CC000001AC0000018C00000D400B60054
S1130090B800BA00BC00BE00C000C200C400C60064
S11300A0C800CA00CC00CE00D00011241FBECFEF80
S11300B0D0E1DEBFCDBF7AD0A3C0A2CF85B3886024
S11300C085BB8FEC97E00197F1F700C0000085B382
S11300D0877F85BB8FEC97E00197F1F700C00000A4
S11300E00895CF938FEF84BB15BAC0E2C5BBE6DF9A
S11300F0C5BBE4DF80E885BBE1DF15BADFDF80EF55
S113010085BBDCDF15BADADF80E685BBD7DFCF91AC
S11301100895CF93C82F85BB85B3846085BBCEDF9C
S1130120C295C07FC5BB85B3846085BBC7DFCF9153
S11301300895CF93C82F85BB85B38B7F85BBBEDF66
S1130140C295C07FC5BB85B38B7F85BBB7DFCF911D
S11301500895803138F590E0FC013197EF30F105D6
S113016018F4EA5BFF4F43C080E3089582E30895E7
S113017083E3089584E3089585E3089586E3089569
S113018087E3089588E3089589E3089581E4089551
S113019082E4089583E4089584E4089585E4089549
S11301A086E4089580E3089581E3089581B38F7709
S11301B081BB8FEF87BB87E085BD93DF81E0B9DF2B
S11301C081E0B7DF84B582958F70C3DFA2DF84B589
S11301D08F70BFDF9EDF84B588BB2FE78AE196E08E
S11301E0215080409040E1F700C00000E9CFEE0FBD
S11301F0FF1F0024001C0BBE0790F691E02D09940C
S1070200F894FFCF9C
S9030000FC
